:100000000C942A000C949E000C9447000C9447001A
:100010000C9447000C9447000C9447000C94470044
:100020000C9447000C9447000C94CC0F0C949F0F39
:100030000C9447000C9447000C9447000C94470024
:100040000C9447000C9447000C9447000C94470014
:100050000C94470011241FBECFE5D8E0DEBFCDBF12
:1000600010E0A0E6B0E0E0E6F1E202C005900D92FB
:10007000AE38B107D9F711E0AEE8B0E001C01D928B
:10008000A236B107E1F70E94C1000C94AE100C94A7
:100090000000DF93CF93CDB7DEB7809197008F5FDD
:1000A00080939700809196008F5F80939600809157
:1000B00095008F5F8093950080919700853F89F42C
:1000C000109297009091620081E0892780936200EE
:1000D0009091910080916200982388E0692F0E949E
:1000E000BF0A809196008A3789F410929600909109
:1000F000610081E089278093610090919200809156
:100100006100982389E0692F0E94BF0A80919500C1
:100110008E3389F4109295009091600081E08927D8
:1001200080936000909193008091600098238AE012
:10013000692F0E94BF0ACF91DF9108951F920F92FD
:100140000FB60F9211248F93DF93CF93CDB7DEB705
:10015000809198008F5F8093980080918E008093AB
:10016000910080918F008093920080919000809305
:100170009300CF91DF918F910F900FBE0F901F9042
:100180001895DF93CF93CDB7DEB728970FB6F894C5
:10019000DEBF0FBECDBF1E821D820E9498090E9445
:1001A0004F078EE160E00E94BF0A19821A821B820B
:1001B0001C820CC0000089819A81AB81BC810196B0
:1001C000A11DB11D89839A83AB83BC8389819A81E8
:1001D000AB81BC81883B21E6920720E0A20720E0AA
:1001E000B20740F389E490E00E942B0F0E944F0F6A
:1001F0000E942D01CE0106960E945A079E818D8194
:10020000981741F18E81282F30E038872F838F8116
:10021000988586309105C1F02F81388527303105CA
:1002200061F08F81988585309105A1F480918E00D1
:1002300091E0892780938E000DC080918F0091E01E
:10024000892780938F0006C08091900091E08927D4
:10025000809390008E818D83CDCFDF93CF93CDB7E8
:10026000DEB7A5E5B0E0E5E5F0E0808181608C9344
:10027000A5E5B0E0E5E5F0E080818D7F8C93ABE50E
:10028000B0E0EBE5F0E0808180648C93CF91DF916A
:100290000895DF93CF9300D000D0CDB7DEB78C8325
:1002A00081E089831B8229C08C81482F50E08B819B
:1002B000282F30E081E090E002C0880F991F2A9536
:1002C000E2F79A01282339238B81882F90E0A90136
:1002D00002C0559547958A95E2F7CA018A838B81BA
:1002E000882F90E0FC01ED59FF4F80816A810E94C8
:1002F000BF0A89838B818F5F8B838B818830A0F2CB
:1003000089810F900F900F900F90CF91DF910895FA
:10031000DF93CF9300D000D000D0CDB7DEB78E836F
:1003200081E08D838E810E94490182E160E00E941C
:10033000BF0A8D8381E160E00E94BF0A8D8380E166
:1003400061E00E94BF0A8D8319821A821B821C827F
:100350000CC0000089819A81AB81BC810196A11DEE
:10036000B11D89839A83AB83BC8389819A81AB81D8
:10037000BC8184379105A105B10558F380E160E0A7
:100380000E94BF0A8D838D8126960FB6F894DEBF3A
:100390000FBECDBFCF91DF910895DF93CF9300D0F3
:1003A00000D000D0CDB7DEB78E8381E08D838E8103
:1003B0000E94490182E161E00E94BF0A8D8381E1D0
:1003C00060E00E94BF0A8D8380E161E00E94BF0A65
:1003D0008D8319821A821B821C820CC000008981C5
:1003E0009A81AB81BC810196A11DB11D89839A833D
:1003F000AB83BC8389819A81AB81BC8184379105B1
:10040000A105B10558F380E160E00E94BF0A8D8329
:100410008D8126960FB6F894DEBF0FBECDBFCF916B
:10042000DF910895DF93CF93CDB7DEB72C970FB64A
:10043000F894DEBF0FBECDBF19861A861B861C86B8
:100440000CC0000089859A85AB85BC850196A11DED
:10045000B11D89879A87AB87BC8789859A85AB85CB
:10046000BC858C3E25E0920720E0A20720E0B20781
:1004700040F380E30E9488011D821E821F8218863D
:100480000CC000008D819E81AF81B8850196A11DB1
:10049000B11D8D839E83AF83B8878D819E81AF818F
:1004A000B885843022E0920720E0A20720E0B2075E
:1004B00040F380E30E94880119821A821B821C8209
:1004C0000CC0000089819A81AB81BC810196A11D7D
:1004D000B11D89839A83AB83BC8389819A81AB8167
:1004E000BC8184379105A105B10558F380E30E94D2
:1004F000880188E30E94880186E00E9488018CE0E0
:100500000E9488012C960FB6F894DEBF0FBECDBFB7
:10051000CF91DF910895DF93CF9300D000D00F9259
:10052000CDB7DEB78C836D8381E0898380E88A83D1
:1005300080EC8B838C81882F90E09C01215030408F
:10054000CE010296FC01E20FF31F90818D81890F8D
:1005500081500E94880189810F900F900F900F9019
:100560000F90CF91DF910895DF93CF930F92CDB786
:10057000DEB781E0898381E00E948801898381E080
:10058000898389810F90CF91DF910895DF93CF9375
:10059000CDB7DEB784E00E948801CF91DF91089546
:1005A000DF93CF93CDB7DEB786E00E948801CF916D
:1005B000DF910895DF93CF9300D000D0CDB7DEB7A1
:1005C0008A837C836B838A818830F8F48A81882FC0
:1005D00090E00896880F991F880F991F880F991F20
:1005E0000E94880119820EC08981282F30E08B81FA
:1005F0009C81FC01E20FF31F80810E94CD01898163
:100600008F5F89838981883078F30F900F900F90E6
:100610000F90CF91DF910895DF93CF9300D000D05A
:1006200000D0CDB7DEB79C838B837E836D831A8227
:1006300032C019822AC08A81882F90E09C01220F43
:10064000331F8D819E81AC01420F531F8981682F1A
:1006500070E08981282F30E081E090E0821B930BCD
:100660009C01220F331F8B819C81280F391F8A81A7
:10067000882F90E0F901E80FF91F8081FA01E60F59
:10068000F71F808389818F5F89838981823098F207
:100690008A818F5F8A838A81823058F226960FB6CC
:1006A000F894DEBF0FBECDBFCF91DF910895DF93E9
:1006B000CF9300D000D000D0CDB7DEB79C838B8322
:1006C0007E836D831A822EC0198226C08A81882F6C
:1006D00090E09C01220F331F8B819C81BC01620F33
:1006E000731F8981482F50E08A81882F90E09C01F8
:1006F000220F331F8D819E81280F391F8981882FFA
:1007000090E0F901E80FF91F8081FB01E40FF51F6C
:10071000808389818F5F898389818230B8F28A8161
:100720008F5F8A838A81823078F226960FB6F8949A
:10073000DEBF0FBECDBFCF91DF910895DF93CF9382
:10074000CDB7DEB728970FB6F894DEBF0FBECDBF8A
:1007500098878F831B821C821D821E82F8941A82C6
:1007600032C019822AC08A81482F50E08981682FBF
:1007700070E08981282F30E081E090E0821B930BAC
:100780009C01220F331F8F819885280F391F8A8182
:10079000882F90E0F901E80FF91FA0819A01220F3C
:1007A000331FCE010196820F931F860F971FFC0106
:1007B0003296A08389818F5F89838981823098F204
:1007C0008A818F5F8A838A81823058F28F819885EF
:1007D0009E012D5F3F4FB9010E94570378942896E0
:1007E0000FB6F894DEBF0FBECDBFCF91DF91089555
:1007F000DF93CF9300D000D000D0CDB7DEB79C837D
:100800008B836D834E831A8219821A821EC01982CD
:1008100016C08A81482F50E08981282F30E0CA0114
:10082000880F991F880F991F880F991F820F931F98
:10083000FC01E752FF4F108289818F5F8983898194
:10084000883038F38A818F5F8A838A818830F8F212
:100850008D8181508D838E8181508E838D81682F13
:1008600070E08E81A82FB0E08D81482F50E08E81FE
:10087000282F30E0CA01880F991F880F991F880F11
:10088000991F820F931FFC01E752FF4F20818B813C
:100890009C81FC0132968081280FCB01880F991F23
:1008A000880F991F880F991F8A0F9B1FFC01E75221
:1008B000FF4F20838D81882F90E0BC0161507040F4
:1008C0008E81A82FB0E08D81882F90E0AC0141503F
:1008D00050408E81282F30E0CA01880F991F880F61
:1008E000991F880F991F820F931FFC01E752FF4F3A
:1008F0009081EB81FC818081292F280FCB01880F0B
:10090000991F880F991F880F991F8A0F9B1FFC0141
:10091000E752FF4F20838D81682F70E08E81882FF2
:1009200090E0DC0111968D81482F50E08E81882F58
:1009300090E09C012F5F3F4FCA01880F991F880FDD
:10094000991F880F991F820F931FFC01E752FF4FD9
:1009500020818B819C81FC0132968181280FCB0103
:10096000880F991F880F991F880F991F8A0F9B1F47
:10097000FC01E752FF4F20838D81882F90E0BC015E
:10098000615070408E81882F90E0DC0111968D813E
:10099000882F90E0AC01415050408E81882F90E02C
:1009A0009C012F5F3F4FCA01880F991F880F991F25
:1009B000880F991F820F931FFC01E752FF4F908110
:1009C000EB81FC818181292F280FCB01880F991F92
:1009D000880F991F880F991F8A0F9B1FFC01E752F0
:1009E000FF4F208326960FB6F894DEBF0FBECDBF13
:1009F000CF91DF910895DF93CF9300D0CDB7DEB7CD
:100A00009A838983E981FA81808180931C01E9813D
:100A1000FA81818180931D0189819A81FC0132963E
:100A200080818093240189819A81FC0132968181A1
:100A3000809325010F900F90CF91DF910895DF9360
:100A4000CF9300D00F92CDB7DEB781E08983898143
:100A5000282F30E03B832A838A819B81009709F409
:100A6000BCC02A813B812130310509F0B6C080919C
:100A70005B018F5F80935B0180915B01882F90E029
:100A80000196880F991F880F991F880F991FFC01E5
:100A9000E45EFE4F208180915B01882F90E0880FFB
:100AA000991F880F991F880F991FFC01E45EFE4F64
:100AB0008081820F80935A0180915B01882F90E0A2
:100AC0000196880F991F0196880F991F880F991F0B
:100AD000FC01E75EFE4F208180915B01882F90E052
:100AE000880F991F0196880F991F880F991FFC0185
:100AF000E75EFE4F8081820F8093590180915A01F9
:100B0000823008F06AC080915901823008F065C0D7
:100B100080915B01882F90E09C012F5F3F4F809177
:100B20005B01882F90E0880F991F880F991F880F0D
:100B3000991FFC01E45EFE4F4081C901880F991F97
:100B4000880F991F880F991FFC01E45EFE4F4083B8
:100B500080915B01882F90E09C012F5F3F4F809137
:100B60005B01882F90E0880F991F0196880F991FCD
:100B7000880F991FFC01E75EFE4F4081C901880F75
:100B8000991F0196880F991F880F991FFC01E75E36
:100B9000FE4F408380915B01882F90E0880F991F62
:100BA000880F991F880F991FFC01E45EFE4F108289
:100BB00080915B01882F90E0880F991F0196880F24
:100BC000991F880F991FFC01E75EFE4F10828091EC
:100BD0005B01873011F410925B010F900F900F9022
:100BE000CF91DF9108951F93DF93CF9300D0CDB7BE
:100BF000DEB71A8219821A8247C019823EC08A81E2
:100C0000682F70E08981A82FB0E08A81482F50E0DA
:100C10008981282F30E0CA01880F991F880F991FFA
:100C2000880F991F820F931FFC01E752FF4F10811D
:100C30008A81482F50E08981282F30E0CA01880F2F
:100C4000991F880F991F880F991F820F931FFC010E
:100C5000E756FF4F8081212F280FCB01880F991F66
:100C6000880F991F880F991F8A0F9B1FFC01E75E51
:100C7000FE4F208389818F5F89838981883008F4C2
:100C8000BECF8A818F5F8A838A81883008F4B5CF8E
:100C90000F900F90CF91DF911F910895DF93CF9325
:100CA00000D0CDB7DEB71A8219821A8231C01982FC
:100CB00029C08A81A82FB0E08981682F70E08A81DD
:100CC000482F50E08981282F30E0CA01880F991FF2
:100CD000880F991F880F991F820F931FFC01E75EF1
:100CE000FE4F2081CD01880F991F880F991F880F13
:100CF000991F860F971FFC01E756FF4F20838981BC
:100D00008F5F898389818830A0F28A818F5F8A838F
:100D10008A81883060F20F900F90CF91DF91089513
:100D20000F931F93DF93CF93CDB7DEB7C454D0405A
:100D30000FB6F894DEBF0FBECDBFFE01ED5BFF4FD7
:100D4000918380831A821982FE01ED5BFF4F01902F
:100D5000F081E02D10821A824AC0198241C08A8136
:100D6000682F70E08981082F10E08A81482F50E0B9
:100D70008981282F30E0CA01880F991F880F991F99
:100D8000880F991F820F931FFC01E752FF4FA0812C
:100D90008A81482F50E08981282F30E0CA01880FCE
:100DA000991F880F991F880F991F820F931FFC01AD
:100DB000E756FF4F80814A2F480F9B01220F331FB8
:100DC000220F331F220F331FCE010196820F931F74
:100DD000800F911FFC013296408389818F5F898348
:100DE0008981883008F4BBCF8A818F5F8A838A81AA
:100DF000883008F4B2CF1A8242C019823AC08A8180
:100E0000282F30E08981482F50E0220F331F220F16
:100E1000331F220F331FCE010196820F931F840FC1
:100E2000951FFC0132968081882301F18A81282F49
:100E300030E08981482F50E0220F331F220F331FEB
:100E4000220F331FCE010196820F931F840F951F2F
:100E5000FC0132968081813049F0FE01ED5BFF4F4D
:100E60000190F081E02D81E0808306C089818F5F51
:100E700089838981883018F28A818F5F8A838A8189
:100E8000883008F4BACFCC5BDF4F0FB6F894DEBFE2
:100E90000FBECDBFCF91DF911F910F910895DF93CA
:100EA000CF93CDB7DEB780E060EF0E943E0CCF91CC
:100EB000DF910895DF93CF93CDB7DEB760970FB67C
:100EC000F894DEBF0FBECDBF9E838D831A821C8235
:100ED000198281E08B8303C18B81882F90E0817020
:100EE0009070188A009711F421E0288B80E06889BF
:100EF0000E94BF0A8B81882F90E082709070959538
:100F000087951F86009711F431E03F8781E06F8558
:100F10000E94BF0A8B81882F90E084709070959515
:100F20008795959587951E86009711F481E08E87A9
:100F300082E06E850E94BF0A8B81882F90E08870C6
:100F400090709595879595958795959587951D862C
:100F5000009711F491E09D8783E06D850E94BF0AA0
:100F60009E012C5F3F4F84E0B9010E94EB098C8108
:100F70001C86882311F421E02C8789813C85830F0E
:100F800089839E012C5F3F4F85E0B9010E94EB09E8
:100F90008C81882319F482E08B8701C01B868981AC
:100FA0009B85890F89839E012C5F3F4F86E0B901A5
:100FB0000E94EB098C81882319F424E02A8701C060
:100FC0001A8689813A85830F89839E012C5F3F4F62
:100FD00087E0B9010E94EB098C81882319F488E02D
:100FE000898701C0198689819985890F89838981BB
:100FF000882309F46BC08B81282F30E038872F833A
:101000008F8198858230910541F12F813885233079
:10101000310534F48F8198858130910561F063C08A
:101020002F8138852430310559F18F81988588309A
:101030009105C9F158C089818695882F90E0FC01FF
:10104000EA57FF4F8081882F90E0FC01EB58FF4F5B
:101050008081ED81FE81808346C089818695882FBD
:1010600090E0FC01EA57FF4F8081882F90E00496C2
:10107000FC01EB58FF4F8081ED81FE81808333C0FE
:1010800089818695882F90E0FC01EA57FF4F808187
:10109000882F90E00896FC01EB58FF4F8081ED818E
:1010A000FE81808320C089818695882F90E0FC0195
:1010B000EA57FF4F8081882F90E00C96FC01EB5897
:1010C000FF4F8081ED81FE8180830DC0ED81FE8127
:1010D00010828B81882F90E0880F991F8B838B81E2
:1010E000893008F4F9CE60960FB6F894DEBF0FBED3
:1010F000CDBFCF91DF910895DF93CF93CDB7DEB70A
:1011000027970FB6F894DEBF0FBECDBF8A837C83CE
:101110006B83CE0101960E945A0799811F828A81B2
:10112000981711F481E08F83EB81FC819F8190837C
:101130001E821D828A81803120F481E090E09E83AE
:101140008D83ED81FE81E557FF4F808127960FB695
:10115000F894DEBF0FBECDBFCF91DF910895DF932E
:10116000CF930F92CDB7DEB7198219820DC0898156
:10117000882F90E0FC01E559FF4F808161E00E94DB
:10118000FA0D89818F5F89838981843080F3198288
:101190000DC08981882F90E0FC01E159FF4F8081CB
:1011A00060E00E94FA0D89818F5F89838981843094
:1011B00080F30F90CF91DF910895DF93CF9300D00C
:1011C0000F92CDB7DEB79B838A8381E089838981C3
:1011D0000F900F900F90CF91DF910895DF93CF93F1
:1011E00000D00F92CDB7DEB78A836B8381E089830D
:1011F00089810F900F900F90CF91DF910895DF9329
:10120000CF93CDB7DEB729970FB6F894DEBF0FBEE8
:10121000CDBF8B837D836C8381E0898380915D0169
:10122000282F30E039872887888599858130910576
:10123000F9F0288539852230310589F1888599852D
:10124000009709F06BC0EC81FD8110829E012E5F3A
:101250003F4F8B81B9010E94EB0989838A818130DC
:1012600009F05CC010925C0182E080935D0156C081
:10127000EC81FD8181E080839E012E5F3F4F8B8159
:10128000B9010E94EB0989838A81882309F046C04D
:1012900081E080935C0182E080935D013FC080919A
:1012A0005C01EC81FD8180839E012E5F3F4F8B812D
:1012B000B9010E94EB0989838A81282F30E03F839E
:1012C0002E838E819F810097C1F02E813F81213036
:1012D000310521F5809174008150809374008091D4
:1012E00074008823D9F482E38093730082E38093AF
:1012F000740081E080935D0111C080917300815082
:101300008093730080917300882341F482E380937B
:10131000730082E38093740010925D0189812996A5
:101320000FB6F894DEBF0FBECDBFCF91DF91089509
:10133000DF93CF9300D000D0CDB7DEB7EAE3F0E083
:101340008FE08083E7E3F0E08FEF8083E4E3F0E079
:101350008FEF8083E1E3F0E081EF8083ABE3B0E0E7
:10136000EBE3F0E08081807F8C93E8E3F0E0808124
:10137000E8E3F0E01082E5E3F0E08081E5E3F0E00F
:101380001082A2E3B0E0E2E3F0E080818E708C9303
:10139000ABE3B0E0EBE3F0E080818F608C93E8E3B7
:1013A000F0E08081E8E3F0E08FEF8083E5E3F0E0B8
:1013B0008081E5E3F0E08FEF8083A2E3B0E0E2E339
:1013C000F0E08081816B8C930F900F900F900F90C5
:1013D000CF91DF910895DF93CF93CDB7DEB72797F5
:1013E0000FB6F894DEBF0FBECDBF8B837D836C83B9
:1013F0008B8186958695869589838981282F30E013
:101400003F832E834E815F814130510509F43DC0F9
:101410008E819F818230910534F42E813F81211588
:10142000310571F0A1C04E815F814230510509F450
:1014300051C08E819F818330910509F470C094C0A2
:1014400081E08A838B8187708B83E9E3F0E0808180
:10145000482F50E08B81282F30E081E090E002C0DF
:10146000880F991F2A95E2F79A01282339238B8147
:10147000882F90E0A90102C0559547958A95E2F71B
:10148000CA01EC81FD81808370C081E08A838B81F9
:1014900087708B83E6E3F0E08081482F50E08B81FA
:1014A000282F30E081E090E002C0880F991F2A9534
:1014B000E2F79A01282339238B81882F90E0A90134
:1014C00002C0559547958A95E2F7CA01EC81FD81E6
:1014D00080834BC081E08A838B8187708B83E3E3B9
:1014E000F0E08081482F50E08B81282F30E081E0B0
:1014F00090E002C0880F991F2A95E2F79A012823ED
:1015000039238B81882F90E0A90102C0559547951A
:101510008A95E2F7CA01EC81FD81808326C081E0D3
:101520008A838B8187708B83E0E3F0E08081482F92
:1015300050E08B81282F30E081E090E002C0880FDE
:10154000991F2A95E2F79A01282339238B81882F46
:1015500090E0A90102C0559547958A95E2F7CA0126
:10156000EC81FD81808301C01A828A8127960FB6A3
:10157000F894DEBF0FBECDBFCF91DF910895DF930A
:10158000CF93CDB7DEB72E970FB6F894DEBF0FBE60
:10159000CDBF8B836C838B81869586958695898359
:1015A0008981282F30E03E872D878D859E8581306B
:1015B000910509F454C02D853E85223031052CF467
:1015C0008D859E85009771F000C12D853E85223066
:1015D000310509F481C08D859E858330910509F41C
:1015E000B8C0F3C081E08A838B8187708B838C8144
:1015F000282F30E03C872B878B859C850097D1F086
:101600002B853C852130310509F0E0C0ABE3B0E02B
:10161000EBE3F0E08081482F8B81282F30E081E0E0
:1016200090E0022E02C0880F991F0A94E2F7842BE3
:101630008C93CCC0ABE3B0E0EBE3F0E08081482FCB
:101640008B81282F30E081E090E0022E02C0880FCD
:10165000991F0A94E2F7809584238C93B7C081E0A8
:101660008A838B8187708B838C81282F30E03A8727
:10167000298789859A850097D1F029853A85213077
:10168000310509F0A3C0A8E3B0E0E8E3F0E0808111
:10169000482F8B81282F30E081E090E0022E02C09D
:1016A000880F991F0A94E2F7842B8C938FC0A8E3CC
:1016B000B0E0E8E3F0E08081482F8B81282F30E014
:1016C00081E090E0022E02C0880F991F0A94E2F791
:1016D000809584238C937AC081E08A838B81877084
:1016E0008B838C81282F30E038872F838F819885DA
:1016F0000097D1F02F8138852130310509F066C07F
:10170000A5E3B0E0E5E3F0E08081482F8B81282F4E
:1017100030E081E090E0022E02C0880F991F0A9409
:10172000E2F7842B8C9352C0A5E3B0E0E5E3F0E050
:101730008081482F8B81282F30E081E090E0022EBD
:1017400002C0880F991F0A94E2F7809584238C9336
:101750003DC081E08A838B8187708B838C81282FA9
:1017600030E03E832D838D819E810097C9F02D81CD
:101770003E812130310551F5A2E3B0E0E2E3F0E033
:101780008081482F8B81282F30E081E090E0022E6D
:1017900002C0880F991F0A94E2F7842B8C9316C01D
:1017A000A2E3B0E0E2E3F0E08081482F8B81282FB4
:1017B00030E081E090E0022E02C0880F991F0A9469
:1017C000E2F7809584238C9301C01A828A812E9639
:1017D0000FB6F894DEBF0FBECDBFCF91DF91089555
:1017E000DF93CF93CDB7DEB729970FB6F894DEBF5E
:1017F0000FBECDBF8D837F836E831F821E821B82AF
:1018000030C09D818B81890F8D839E012C5F3F4F5E
:101810008D81B9010E94EB098A838A81282F30E0EB
:1018200039872887888599850097B9F02885398573
:101830002130310599F481E08983EE81FF81908127
:101840008C81892BEE81FF818083EE81FF818081F5
:10185000880FEE81FF81808301C019828B818F5FA9
:101860008B838B81883068F2898129960FB6F89432
:10187000DEBF0FBECDBFCF91DF910895DF93CF9331
:1018800000D000D00F92CDB7DEB78A836B838A81F8
:10189000282F30E03D832C838C819D818130910500
:1018A000E1F02C813D81223031052CF48C819D8129
:1018B000009761F027C02C813D8122303105A1F0D5
:1018C0008C819D8183309105B1F01CC081E08983BA
:1018D000EBE3F0E08B81808316C081E08983E8E34D
:1018E000F0E08B8180830FC081E08983E5E3F0E045
:1018F0008B81808308C081E08983E2E3F0E08B8103
:10190000808301C0198289810F900F900F900F90F2
:101910000F90CF91DF910895DF93CF93CDB7DEB7CE
:1019200027970FB6F894DEBF0FBECDBF8B837D83A4
:101930006C838B8186958695869589838981282FEE
:1019400030E03F832E834E815F814130510509F4A1
:101950003DC08E819F818230910534F42E813F817C
:101960002115310571F0A1C04E815F8142305105D2
:1019700009F451C08E819F818330910509F470C0B4
:1019800094C081E08A838B8187708B83EAE3F0E0E7
:101990008081482F50E08B81282F30E081E090E05B
:1019A00002C0880F991F2A95E2F79A01282339234C
:1019B0008B81882F90E0A90102C0559547958A95A3
:1019C000E2F7CA01EC81FD81808370C081E08A83E7
:1019D0008B8187708B83E7E3F0E08081482F50E0B4
:1019E0008B81282F30E081E090E002C0880F991FA2
:1019F0002A95E2F79A01282339238B81882F90E0DA
:101A0000A90102C0559547958A95E2F7CA01EC8174
:101A1000FD8180834BC081E08A838B8187708B83BB
:101A2000E4E3F0E08081482F50E08B81282F30E004
:101A300081E090E002C0880F991F2A95E2F79A0191
:101A4000282339238B81882F90E0A90102C0559566
:101A500047958A95E2F7CA01EC81FD81808326C013
:101A600081E08A838B8187708B83E1E3F0E0808162
:101A7000482F50E08B81282F30E081E090E002C0B9
:101A8000880F991F2A95E2F79A01282339238B8121
:101A9000882F90E0A90102C0559547958A95E2F7F5
:101AA000CA01EC81FD81808301C01A828A81279658
:101AB0000FB6F894DEBF0FBECDBFCF91DF91089572
:101AC000DF93CF9300D000D000D0CDB7DEB78A83AC
:101AD0007C836B8381E089838A81282F30E03E8379
:101AE0002D838D819E8181309105E1F02D813E8194
:101AF000223031052CF48D819E81009761F027C042
:101B00002D813E8122303105A1F08D819E8183306F
:101B10009105B1F01CC0EAE3F0E08081EB81FC812B
:101B2000808316C0E7E3F0E08081EB81FC81808355
:101B30000FC0E4E3F0E08081EB81FC81808308C08A
:101B4000E1E3F0E08081EB81FC81808301C01982B8
:101B5000898126960FB6F894DEBF0FBECDBFCF9118
:101B6000DF910895DF93CF9300D000D00F92CDB7CF
:101B7000DEB78A836B8381E089838A81282F30E0F6
:101B80003D832C838C819D8181309105D1F02C8106
:101B90003D81223031052CF48C819D81009761F0CC
:101BA0001FC02C813D812230310581F08C819D81C7
:101BB0008330910581F014C0EAE3F0E08B818083EB
:101BC00010C0E7E3F0E08B8180830BC0E4E3F0E03A
:101BD0008B81808306C0E1E3F0E08B81808301C0CC
:101BE000198289810F900F900F900F900F90CF91D5
:101BF000DF910895DF93CF93CDB7DEB72E970FB661
:101C0000F894DEBF0FBECDBF8B836C838B8186952E
:101C10008695869589838981282F30E03E872D8798
:101C20008D859E858130910509F454C02D853E85B2
:101C3000223031052CF48D859E85009771F000C10E
:101C40002D853E852230310509F481C08D859E8524
:101C50008330910509F4B8C0F3C081E08A838B8199
:101C600087708B838C81282F30E03C872B878B8576
:101C70009C850097D1F02B853C852130310509F0FA
:101C8000E0C0AAE3B0E0EAE3F0E08081482F8B8176
:101C9000282F30E081E090E0022E02C0880F991FCB
:101CA0000A94E2F7842B8C93CCC0AAE3B0E0EAE379
:101CB000F0E08081482F8B81282F30E081E090E098
:101CC000022E02C0880F991F0A94E2F780958423A0
:101CD0008C93B7C081E08A838B8187708B838C81E2
:101CE000282F30E03A87298789859A850097D1F097
:101CF00029853A852130310509F0A3C0A7E3B0E07A
:101D0000E7E3F0E08081482F8B81282F30E081E0ED
:101D100090E0022E02C0880F991F0A94E2F7842BEC
:101D20008C938FC0A7E3B0E0E7E3F0E08081482F19
:101D30008B81282F30E081E090E0022E02C0880FD6
:101D4000991F0A94E2F7809584238C937AC081E0EE
:101D50008A838B8187708B838C81282F30E0388732
:101D60002F838F8198850097D1F02F81388521307E
:101D7000310509F066C0A4E3B0E0E4E3F0E080815F
:101D8000482F8B81282F30E081E090E0022E02C0A6
:101D9000880F991F0A94E2F7842B8C9352C0A4E316
:101DA000B0E0E4E3F0E08081482F8B81282F30E021
:101DB00081E090E0022E02C0880F991F0A94E2F79A
:101DC000809584238C933DC081E08A838B818770CA
:101DD0008B838C81282F30E03E832D838D819E81E3
:101DE0000097C9F02D813E812130310551F5A1E3E5
:101DF000B0E0E1E3F0E08081482F8B81282F30E0D4
:101E000081E090E0022E02C0880F991F0A94E2F749
:101E1000842B8C9316C0A1E3B0E0E1E3F0E0808175
:101E2000482F8B81282F30E081E090E0022E02C005
:101E3000880F991F0A94E2F7809584238C9301C040
:101E40001A828A812E960FB6F894DEBF0FBECDBFE0
:101E5000CF91DF910895DF93CF9300D0CDB7DEB758
:101E60009A83898389819A8190935F0180935E012F
:101E70000F900F90CF91DF910895DF93CF9300D013
:101E8000CDB7DEB79A83898389819A819093610166
:101E9000809360010F900F90CF91DF910895DF93B1
:101EA000CF93CDB7DEB7E3E5F0E083E08083A9E52B
:101EB000B0E0E9E5F0E0808181608C93A9E5B0E0D5
:101EC000E9E5F0E0808182608C937894CF91DF9196
:101ED0000895DF93CF9300D0CDB7DEB79A8389837F
:101EE000E2E5F0E08081E981FA8180830F900F9034
:101EF000CF91DF910895DF93CF9300D000D0CDB77D
:101F0000DEB79A8389837C836B83E8E5F0E0808188
:101F10008170E981FA818083E8E5F0E08081882F93
:101F200090E08270907095958795EB81FC8180831D
:101F30000F900F900F900F90CF91DF9108951F9207
:101F40000F920FB60F9211242F933F934F935F93ED
:101F50006F937F938F939F93AF93BF93EF93FF9371
:101F6000DF93CF93CDB7DEB7E0915E01F0915F01D3
:101F70000995CF91DF91FF91EF91BF91AF919F9123
:101F80008F917F916F915F914F913F912F910F9022
:101F90000FBE0F901F9018951F920F920FB60F92C1
:101FA00011242F933F934F935F936F937F938F935E
:101FB0009F93AF93BF93EF93FF93DF93CF93CDB7EF
:101FC000DEB7E0916001F09161010995CF91DF9159
:101FD000FF91EF91BF91AF919F918F917F916F9101
:101FE0005F914F913F912F910F900FBE0F901F90D7
:101FF0001895DF93CF93CDB7DEB7E6E2F0E087E048
:102000008083E7E2F0E080E68083CF91DF9108955E
:10201000DF93CF9300D000D00F92CDB7DEB7898386
:102020007B836A830F900F900F900F900F90CF914A
:10203000DF910895DF93CF9300D000D000D0CDB7CB
:10204000DEB78C837E836D831B821A8219828C811A
:10205000883008F050C0A7E2B0E0E7E2F0E080810D
:10206000887F8C93A7E2B0E0E7E2F0E090818C817A
:10207000892B8C93A6E2B0E0E6E2F0E080818064F8
:102080008C93E6E2F0E08081882F90E08071907080
:102090009595879595958795959587959595879528
:1020A000009779F3E4E2F0E0808189838981829569
:1020B0008695869583708983E5E2F0E08081882F9C
:1020C00090E09B838A838A819B81880F991F880F68
:1020D000991F9B838A838981282F30E08A819B8185
:1020E000822B932B9B838A83A6E2B0E0E6E2F0E0AA
:1020F000808180618C938A819B8126960FB6F894AB
:10210000DEBF0FBECDBFCF91DF910895DF93CF9398
:1021100000D0CDB7DEB769834A830F900F90CF917F
:10212000DF910895DF93CF93CDB7DEB7A6E2B0E09D
:10213000E6E2F0E0808180688C93CF91DF91089592
:10214000DF93CF93CDB7DEB7A6E2B0E0E6E2F0E0F2
:1021500080818F778C93CF91DF910895F894FFCF92
:1021600001010108090A0B0C0D0E0F000102030406
:102170000506073232000102030405060708090AB2
:0E2180000B0C0D0E0F100102030004010000F5
:00000001FF
